:100000000C9434000C9451000C9451000C94510049
:100010000C9451000C9451000C9451000C94540217
:100020000C9451000C9451000C9451000C9451000C
:100030000C9451000C9451000C9451000C945100FC
:100040000C9451000C9451000C9451000C945100EC
:100050000C9451000C9451000C9451000C945100DC
:100060000C9451000C94510011241FBECFEFD8E026
:10007000DEBFCDBF11E0A0E0B1E0E4E9FAE002C0EC
:1000800005900D92AA3FB107D9F721E0AAEFB1E0A0
:1000900001C01D92AE3FB207E1F70E9477020C94B7
:1000A00048050C940000CF93DF93EC010E94D50427
:1000B00063E070E00E944A04880F991FC80FD91F9F
:1000C00088819981DF91CF910895AF92BF92DF929D
:1000D000EF92FF920F931F93CF93DF9300D000D046
:1000E000CDB7DEB77C015B01D42E8E010F5F1F4FB1
:1000F000C8010E948901F50124813581C8012E15AE
:100100003F0511F4DD2089F0B7010E94A7010F908F
:100110000F900F900F90DF91CF911F910F91FF9053
:10012000EF90DF90BF90AF9008950E942B01EFCF2A
:10013000CF93DF93EC010E94D50462E070E00E944F
:100140004A04880F991FC80FD91F88819981DF91B0
:10015000CF910895AF92BF92DF92EF92FF920F93EB
:100160001F93CF93DF9300D000D0CDB7DEB77C01D3
:100170005B01D42E8E010F5F1F4FC8010E948901C1
:10018000F50122813381C8012E153F0511F4DD20D0
:1001900089F0B7010E94A7010F900F900F900F9068
:1001A000DF91CF911F910F91FF90EF90DF90BF9063
:1001B000AF9008950E942B01EFCFFC0160FD03C0BA
:1001C000808191810895828193810895FC0160FD71
:1001D00003C080819181089582819381089560FF99
:1001E00011C05C9A61FF10C05D9A62FF0FC05E9AF9
:1001F00063FF0EC05F9A599A85E08A95F1F7000077
:10020000599808955C98EECF5D98EFCF5E98F0CF47
:100210005F98F1CF1F93CF93DF93D82FC92F162F5D
:1002200062956F700E94EF00612F8D2F9C2F0E94AE
:10023000EF0087EC90E00197F1F700C00000DF913C
:10024000CF911F9108954295440F440F407C605810
:10025000640F0C940A0161E00E940A018FE39FE1A0
:100260000197F1F700C00000089562E00E940A01C2
:100270008FE39FE10197F1F700C000000895CF934D
:10028000DF93D82FC92F509A519A549A559A569A5B
:10029000579A8FE59AEE0197F1F700C0000063E0EE
:1002A0008D2F9C2F0E94EF008FE19EE40197F1F7C4
:1002B00000C0000063E08D2F9C2F0E94EF008FE8AC
:1002C00091E00197F1F700C0000063E08D2F9C2FB3
:1002D0000E94EF0062E08D2F9C2F0E94EF0068E2E9
:1002E0008D2F9C2F0E940A016CE08D2F9C2F0E9465
:1002F0000A018D2F9C2F0E942B0166E08D2F9C2FD1
:100300000E940A0195E89A95F1F70000DF91CF91DC
:100310000895FC0111821082138212820C943F0115
:100320001F93CF93DF93D82FC92F162F62956F702D
:100330000E94EF00612F8D2F9C2FDF91CF911F9195
:100340000C94EF00589A0E94900158980895EF92EB
:10035000FF920F931F93CF93DF93182F092FEB0179
:10036000E12CF12C8991811107C0DF91CF911F9170
:100370000F91FF90EF90089580E1E816F10429F4C1
:1003800060EC812F902F0E940A01FE01319760815D
:10039000812F902F0E94A2018FEFE81AF80AE2CF76
:1003A00082E08093B00094E09093B100809370005D
:1003B00089EF8093B3000895CF93DF9300D000D0EE
:1003C000CDB7DEB78FB7F8942091FA013091FB01D9
:1003D0004091FC015091FD0129833A834B835C835A
:1003E0008FBF69817A818B819C810F900F900F90D4
:1003F0000F90DF91CF910895E4E6F0E080818F7B4C
:100400008083E0E7F0E08081826080830895E0E708
:10041000F0E080818D7F8083E4E6F0E0808180647D
:10042000808308958FB7F8941092FA011092FB011F
:100430001092FC011092FD018FBF0895462F572F97
:10044000BC012FB7F8948091FA019091FB01A09123
:10045000FC01B091FD01840F951FA61FB71F80936B
:10046000FA019093FB01A093FC01B093FD012FBF13
:100470000895462F572FBC012FB7F8948091FA01A9
:100480009091FB01A091FC01B091FD01841B950BA3
:10049000A60BB70B8093FA019093FB01A093FC018C
:1004A000B093FD012FBF08951F921FB61F92112414
:1004B0008F939F93AF93BF938091FA019091FB012B
:1004C000A091FC01B091FD010196A11DB11D809389
:1004D000FA019093FB01A093FC01B093FD01BF9141
:1004E000AF919F918F911F901FBE1F901895CDB710
:1004F000DEB7C351D1400FB6F894DEBF0FBECDBFFB
:10050000CE018D519F4F23E1E4E0F1E0DC01019049
:100510000D922A95E1F7DC0153961C929E012A5B0D
:100520003F4F4FE1E0E5F1E0D90101900D924A958E
:10053000E1F747E1E8E1F1E0DE01979601900D92E5
:100540004A95E1F7FE01FE9648E0DF011D924A95CB
:10055000E9F78E0109501F4FF8019183808333839F
:1005600022838C5B9109958384832C573F4F89E1CB
:10057000EFE6F1E0D90101900D928A95E1F746E2AC
:10058000E8E8F1E0CE010196DC0101900D924A9578
:10059000E1F76E01F1E0CF0EDF1ED60111963C931C
:1005A0002E9313969C938E9312974E01B5E68B0E65
:1005B000911C8AE1EEEAF1E0D40101900D928A9556
:1005C000E1F75E01E1EBAE0EB11C89E1E8ECF1E090
:1005D000D50101900D928A95E1F73E01F8E96F0E81
:1005E000711C89E1E1EEF1E0D30101900D928A9551
:1005F000E1F77E012FE7E20EF11C86E1E7E3F1E08F
:10060000D70101900D928A95E1F7F701769683E084
:10061000DF011D928A95E9F7CE0183509F4F0E941A
:10062000890155245394CB5FDE4F0883C550D140D8
:10063000CA5FDE4F1883C650D140C95FDE4FC88203
:10064000C750D140C85FDE4FD882C850D140C75F85
:10065000DE4F8882C950D140C65FDE4F9882CA50B3
:10066000D140C55FDE4FA882CB50D140C45FDE4F82
:10067000B882CC50D140C35FDE4F6882CD50D140AC
:10068000C25FDE4F7882CE50D140C15FDE4FE8823C
:10069000CF50D1402F2C00E010E0C15FDE4F7880BA
:1006A000CF50D140622C00FD0AC0C35FDE4F78807E
:1006B000CD50D140C25FDE4F6880CE50D140E12C9A
:1006C000F12CC55FDE4F4880CB50D140C45FDE4F78
:1006D0003880CC50D140E0FC0AC0C75FDE4F488074
:1006E000C950D140C65FDE4F3880CA50D14083E048
:1006F000C82ED12CCB5FDE4F8881C550D140CA5F58
:10070000DE4F9881C650D1400E945300C05FDE4F3B
:100710008883C051D140CF5EDE4F9883C151D14014
:10072000C95FDE4F8881C750D140C85FDE4F9881D6
:10073000C850D1400E949800CE5EDE4F8883C251DF
:10074000D140CD5EDE4F9883C351D140812C912C96
:10075000CE0183509F4F0E942B0140E060E0CE010C
:1007600083509F4F0E942301B1E05B26E0E58E1687
:10077000910424F5452DCB5FDE4F6881C550D140F3
:10078000CA5FDE4F7881C650D140C05FDE4F88819E
:10079000C051D140CF5EDE4F9881C151D1400E94FF
:1007A0006500FFEF21EE44E0F15020404040E1F7CA
:1007B00000C000008FEF881A980ACACFD4011196A2
:1007C0005D01C40180559109CC9790F4672D762D79
:1007D000CE0183509F4F0E94A701BFEFE1EEF4E0EE
:1007E000B150E040F040E1F700C000004501B0CF5B
:1007F0002CE8821A910848E284169104F8F4452DF9
:10080000C95FDE4F6881C750D140C85FDE4F788135
:10081000C850D140CE5EDE4F8881C251D140CD5EFE
:10082000DE4F9881C351D1400E94AA008FEF91EE14
:10083000A4E081509040A040E1F7D6CF642D732D05
:10084000CE0183509F4F0E94A701BFEFE1EEF4E07D
:10085000B150E040F040E1F700C00000450128EC55
:10086000A216B10409F074CF41E0C41AD108C11432
:10087000D10409F03FCF8FEFE81AF80A9CE3E9169C
:10088000F10409F01ECF0F5F1F4F0831110509F069
:1008900004CF01CF97FB072E16F4009407D077FD05
:1008A00009D00E945E0407FC05D03EF49095819526
:1008B0009F4F0895709561957F4F0895AA1BBB1BAC
:1008C00051E107C0AA1FBB1FA617B70710F0A61B50
:1008D000B70B881F991F5A95A9F780959095BC0171
:1008E000CD010895CF92DF92EF92FF92CF93DF93E5
:1008F000CDB7DEB72A970FB6F894DEBF0FBECDBFD7
:1009000089879A87A985BA852D913D914D915C91F2
:1009100029833A834B835C8382E49EECACE0BFE1A5
:10092000211531054105510549F1CA01B9012DE1F2
:1009300033EF41E050E00E94E50469017A01A7EA43
:10094000B1E49B01AC010E94040569837A838B8327
:100950009C83ACEEB4EFA70196010E9412059B01A7
:10096000AC0189819A81AB81BC81820F931FA41F46
:10097000B51FB7FF03C00197A109B048E985FA8503
:1009800080839183A283B3839F772A960FB6F894CE
:10099000DEBF0FBECDBFDF91CF91FF90EF90DF9014
:1009A000CF9008950E947204089580E091E00E9423
:1009B00072040895A0E0B0E08093000190930101DB
:1009C000A0930201B09303010895052E97FB1EF436
:1009D00000940E94FC0457FD07D00E94170507FCF5
:1009E00003D04EF40C94FC0450954095309521951D
:1009F0003F4F4F4F5F4F089590958095709561954B
:100A00007F4F8F4F9F4F08950E943905A59F900DEE
:100A1000B49F900DA49F800D911D11240895B7FFE0
:100A20000C9404050E940405821B930B0895A1E217
:100A30001A2EAA1BBB1BFD010DC0AA1FBB1FEE1F58
:100A4000FF1FA217B307E407F50720F0A21BB30BA3
:100A5000E40BF50B661F771F881F991F1A9469F71F
:100A600060957095809590959B01AC01BD01CF017B
:100A70000895A29FB001B39FC001A39F700D811D77
:100A80001124911DB29F700D811D1124911D089597
:040A9000F894FFCF08
:100A9400010000004BC3B6702062696C20686F735C
:100AA400204861727279000048656465726C6967F8
:100AB40065204861727279732042696C617200002A
:100AC400000000000000004CC3A56E6762656E2044
:100AD40066697861722062696666656E000000006E
:100AE400456E20676F642062696C616666C3A47298
:100AF400202866C3B6722048617272792129004B9E
:100B0400C3B6702070616A20686F73204661726D8D
:100B14006F7220416E6B6100536B796E6461206962
:100B24006E6E616E204DC3A57274656E20C3A4748D
:100B3400697420616C6C612070616A6572004CC3D9
:100B4400A5742050657474657220627967676120AA
:100B5400C3A574206469670042796767612073766E
:100B64006172743F2052696E6720506574746572B7
:100B7400004D79737465726965723F2052696E67BE
:0A0B8400204CC3A56E6762656E0089
:00000001FF
